:10084A00758901E4FFFE758C4CE4F58AD28C308DF3
:10085A00FDC28CC28D0FBF00010EEF64C84E70E658
:01086A00226B
:09086B00D2A6C2A7C2B012084ACD
:10087400C2A0C2A2D2A1C2A3C2A5D2A4C2A6C2B01F
:05088400D2A702084AA2
:10080000C2A2C2A1C2A0C2A5C2A4C2A3C2B0C2A7B2
:10081000C2A6C2A0C2A1D2A2D2A3C2A4C2A51208DB
:100820006BD2A0C2A1C2A2C2A3C2A4D2A512086B5D
:10083000D2A0C2A1C2A2D2A3C2A4C2A5C2A6C2A76C
:0A084000D2B012084A12087480C8F2
:030000000208896A
:0C088900787FE4F6D8FD758107020800B6
:00000001FF
