:0300000002090FE3
:0C090F00787FE4F6D8FD75810A0208002C
:0B0927004144432056616C75653A00A6
:06085C00D2A17F027E0024
:10086200E4FDFCC3ED9FEC9E5015E4FBFA0BBB00CC
:0F087200010ABA04F8BBFBF50DBD00010C80E4D0
:010881002254
:0C091B008FB0C2A212085CC2A1020862E8
:0908FA0075F00A84E5F02430FFDA
:0C0903008FB0D2A212085CC2A1020862F0
:100882008B088A09890AAB08AA09A90A1208E16039
:1008920013050AE50A7002050914F91208E1FF12AC
:0508A200090380E222C1
:1008C6007F147E001208627F3812091B7F0C120902
:0B08D6001B7F0112091B7F0602091B9B
:1008A700C2A67F017E00120862D2A612086220A7A4
:0E08B700FDC2A57F017E00120862AF90D2A59F
:0108C5002210
:100800007590FF1208C67F8012091B7BFF7A097959
:10081000271208821208A7A9077FC012091B7F446C
:100820001209037F3A120903E975F064842430FF4A
:10083000120903E975F00A841208FAE91208FA7F2E
:10084000201209037F201209037F201209037F2051
:0C0850001209037FC87E0012086280B805
:1008E100BB010689828A83E0225002E722BBFE0215
:0908F100E32289828A83E4932248
:00000001FF
