:1008D200E4F50DF50EC3E50E9FE50D9E5024E4F5FB
:0308E2000FF510FF
:0508E500E4F51105110E
:1008EA000510E5107002050FE5106478450F70EBEE
:0A08FA00050EE50E70D7050D80D342
:0109040022D0
:10095800E4F50DF50E050EE50E7002050DE50E64C5
:05096800C8450D70F010
:01096D002267
:0E096E00D2A2120958C2A27F017E000208D256
:0E097C00C2A08FB012096E7F027E000208D268
:0E098A00D2A08FB012096E7F017E000208D24B
:100936007F147E001208D27F3812097C7F0C1209C0
:100946007C7F0612097C7F0112097C7F027E0002F1
:0209560008D2C5
:04080000AB07AA0692
:10080400E4F50CD3EB94FFEA940040047A007BFFF8
:100814007C007D64AF03AE0212087DEF2430F5083E
:100824007C007D0AAF03AE0212087D7C007D0A12B3
:10083400087DED2430F509AE02AF037C007D0A1279
:10084400087DED2430F50AE4F50BE508B4300FE536
:1008540009B43005750C028008750C018003E4F5B9
:100864000C7408250CF8E6600FAF0C050C74082F07
:08087400F8E6FF12098A80E991
:01087C002259
:10090500C2A0C2A2E4F590F5B012093690000085A8
:1009150082907F8012097CAF82AE831208007F1E11
:100925007E001208D2A3E4B582E5E583B401E08038
:01093500DBE6
:030000000209985A
:0C099800787FE4F6D8FD75811102090596
:10087D00BC000BBE0029EF8DF084FFADF022E4CC5F
:10088D00F875F008EF2FFFEE33FEEC33FCEE9DEC28
:10089D00984005FCEE9DFE0FD5F0E9E4CEFD22ED6E
:1008AD00F8F5F0EE8420D21CFEADF075F008EF2FB8
:1008BD00FFED33FD4007985006D5F0F222C398FDA9
:0508CD000FD5F0EA2246
:00000001FF
