:0C08B30048454C4C4F20574F524C44001D
:10082C00E4FDFCC3ED9FEC9E5015E4FBFA0BBB0002
:0F083C00010ABA04F8BBFBF50DBD00010C80E406
:01084B00228A
:0C08A700D2A27F017E0012082CC2A22207
:10087900C2A0C2A18FB01208A77F027E0002082C75
:10088900D2A0C2A18FB01208A77F027E0002082C55
:100865007F381208797F0C1208797F061208797F84
:0408750001020879FB
:100800008B088A09890AAB08AA09A90A12084C6050
:100810001A050AE50A7002050914F912084CFF12BC
:0C08200008897F327E0012082C80DB2249
:0E0899001208657BFF7A0879B312080080FE12
:030000000208BF34
:0C08BF00787FE4F6D8FD75810A020899E4
:10084C00BB010689828A83E0225002E722BBFE02AA
:09085C00E32289828A83E49322DD
:00000001FF
