:1009BF00536972656E20547970653A20202020208B
:1009CF002000504F4C49434520534952454E20205B
:1009DF00202000414D42554C414E434520202020C0
:1009EF00202020004649524520454E47494E45207C
:1009FF0020202020005445535420424545502020AC
:100A0F00202020202000534952454E205359535443
:100A1F00454D00494E495449414C495A45442020BF
:010A2F0000C6
:100C34008F90C2B6D2B77F027E00120BBEC2B77FBE
:060C4400027E00020BBE5F
:100C4A008F90D2B6D2B77F027E00120BBEC2B77F98
:060C5A00027E00020BBE49
:100B95008B0D8A0E890FAB0DAA0EA90F12080060E6
:100BA50013050FE50F7002050E14F9120800FF1268
:050BB5000C4A80E22261
:0C0C60007F01120C347F027E00020BBEEC
:100C1B007F147E00120BBE7F38120C347F0C120C2B
:090C2B0034120C607F06020C3447
:100BDE008B0A8A0B890C7F80120C347BFF7A097981
:100BEE00BF120B957FC0120C34AB0AAA0BA90C02D4
:020BFE000B9555
:040BBA007F057E0035
:100BBE00E4FDFCC3ED9FEC9E5015E4FBFA0BBB006D
:0F0BCE00010ABA04F8BBFBF50DBD00010C80E471
:010BDD0022F5
:0B0C7800EF1FAC0670011E4C70F6224E
:080925007D0F7C00AF09AE0854
:04092D008C0A8D0B98
:10093100AB07AA06E4F9F87F207EA17D07FC120B24
:10094100268E148F15AE0AAF0B7C037DE81208F8D2
:10095100C006C007E51525E0FFE51433AB07FAE44F
:10096100F9F8D007D0061208558F138E128D118C0D
:1009710010E4F50FF50EF50DF50CAF13AE12AD1138
:10098100AC10AB0FAA0EA90DA80CC31208E7502D8D
:10099100D2A0D2B0AF15AE14120C78C2A0C2B0AFC3
:1009A10015AE14120C78E50F2401F50FE4350EF5A0
:0D09B1000EE4350DF50DE4350CF50C80BDA0
:0109BE002216
:100A8D007F01120C347BFF7A0979D1120BDE7508C8
:100A9D0001750990D3E50994B0E50894045010123E
:100AAD00092574142509F509E43508F50880E5755F
:100ABD0008047509B0C3E5099490E5089401401147
:100ACD0012092574EC2509F50974FF3508F5088020
:010ADD00E434
:010ADE0022F5
:100B6A007F01120C347BFF7A0979E2120BDE7D2CAD
:100B7A007C017F207E0312092D7D2C7C017F907ED3
:0B0B8A000112092D7F027E00020BBE4D
:100A30007BFF7A0979F3120BDE7508017509F4D38F
:100A4000E50994D0E508940750187D087C00AF09AB
:100A5000AE0812092D74322509F509E43508F508A8
:100A600080DD7508077509D0C3E50994F4E508949D
:100A70000140197D087C00AF09AE0812092D74CE23
:0C0A80002509F50974FF3508F50880DC35
:010A8C002247
:100C00007BFF7A0A7904120BDE7DC87C007FE87EC8
:0B0C10000312092D7F2C7E01020BBE99
:100ADF00E4F5A0F5B0F590120C1B7F80120C347B5F
:100AEF00FF7A0A7915120B957FC0120C347BFF7AAF
:100AFF000A7922120B957FE87E03120BBE120C00AF
:100B0F00120BBA120A8D120BBA120B6A120BBA120F
:070B1F000A30120BBA80E658
:03000000020C6C83
:0C0C6C00787FE4F6D8FD758115020ADFE0
:10080000BB010689828A83E0225002E722BBFE02F6
:09081000E32289828A83E4932229
:1008190075F008758200EF2FFFEE33FECD33CDCC96
:1008290033CCC58233C5829BED9AEC99E582984019
:100839000CF582EE9BFEED9AFDEC99FC0FD5F0D6F6
:10084900E4CEFBE4CDFAE4CCF9A88222B800C1B920
:100859000059BA002DEC8BF084CFCECDFCE5F0CB5E
:10086900F97818EF2FFFEE33FEED33FDEC33FCEB97
:1008790033FB10D703994004EB99FB0FD8E5E4F952
:10088900FA227818EF2FFFEE33FEED33FDEC33FC3F
:10089900C933C910D7059BE99A4007EC9BFCE99A33
:1008A900F90FD8E0E4C9FAE4CCFB2275F010EF2F78
:1008B900FFEE33FEED33FDCC33CCC833C810D70778
:1008C9009BEC9AE899400AED9BFDEC9AFCE899F8B3
:0E08D9000FD5F0DAE4CDFBE4CCFAE4C8F92246
:100B2600C2D5E830E70FB2D5E4C39BFBE49AFAE4FA
:100B360099F9E498F8EC30E717B2D5120B5C120875
:100B460055E4C39BFBE49AFAE499F9E498F8800328
:100B560012085530D50DE4C39FFFE49EFEE49DFDCB
:040B6600E49CFC22ED
:1008E700EB9FF5F0EA9E42F0E99D42F0E89C45F067
:0108F70022DE
:1008F800EC8EF0A4CCC5F0CCCDF8EFA4CEC5F02D8D
:10090800FDE43CFCE8A42EC8C5F03DFDE43CFCEF4A
:0D091800A4FFE5F028FEE43DFDE43CFC22D8
:00000001FF
