:100A2E00E4FDFCC3ED9FEC9E5015E4FBFA0BBB00FE
:0F0A3E00010ABA04F8BBFBF50DBD00010C80E402
:010A4D002286
:0B0A9700EF1FAC0670011E4C70F62231
:08090C007D0F7C00AF09AE086D
:040914008C0A8D0BB1
:10091800AB07AA06E4F9F87F207EA17D07FC12093F
:10092800EA8E148F15AE0AAF0B7C037DE81208DF40
:10093800C006C007E51525E0FFE51433AB07FAE468
:10094800F9F8D007D00612083C8F138E128D118C3F
:1009580010E4F50FF50EF50DF50CAF13AE12AD1151
:10096800AC10AB0FAA0EA90DA80CC31208CE502DBF
:10097800D2A0D2B0AF15AE14120A97C2A0C2B0AFBF
:1009880015AE14120A97E50F2401F50FE4350EF59C
:0D0998000EE4350DF50DE4350CF50C80BDB9
:0109A500222F
:1009A600750801750990D3E50994B0E508940450DB
:1009B6001012090C74142509F509E43508F50880A8
:1009C600E57508047509B0C3E5099490E508940136
:1009D600401112090C74EC2509F50974FF3508F568
:0309E6000880E4A2
:0109E90022EB
:100A4E007D2C7C017F207E031209147D2C7C017F7E
:0D0A5E00907E011209147FC87E00020A2E4E
:100A6B007DC87C007FE87E031209147F2C7E010277
:020A7B000A2E41
:0E0A7D00E4F5A0120A6B1209A6120A4E80F5CB
:03000000020A8B66
:0C0A8B00787FE4F6D8FD758115020A7D25
:1008000075F008758200EF2FFFEE33FECD33CDCCAF
:1008100033CCC58233C5829BED9AEC99E582984032
:100820000CF582EE9BFEED9AFDEC99FC0FD5F0D60F
:10083000E4CEFBE4CDFAE4CCF9A88222B800C1B939
:100840000059BA002DEC8BF084CFCECDFCE5F0CB77
:10085000F97818EF2FFFEE33FEED33FDEC33FCEBB0
:1008600033FB10D703994004EB99FB0FD8E5E4F96B
:10087000FA227818EF2FFFEE33FEED33FDEC33FC58
:10088000C933C910D7059BE99A4007EC9BFCE99A4C
:10089000F90FD8E0E4C9FAE4CCFB2275F010EF2F91
:1008A000FFEE33FEED33FDCC33CCC833C810D70791
:1008B0009BEC9AE899400AED9BFDEC9AFCE899F8CC
:0E08C0000FD5F0DAE4CDFBE4CCFAE4C8F9225F
:1009EA00C2D5E830E70FB2D5E4C39BFBE49AFAE438
:1009FA0099F9E498F8EC30E717B2D5120A201208F0
:100A0A003CE4C39BFBE49AFAE499F9E498F880037E
:100A1A0012083C30D50DE4C39FFFE49EFEE49DFD21
:040A2A00E49CFC222A
:1008CE00EB9FF5F0EA9E42F0E99D42F0E89C45F080
:0108DE0022F7
:1008DF00EC8EF0A4CCC5F0CCCDF8EFA4CEC5F02DA6
:1008EF00FDE43CFCE8A42EC8C5F03DFDE43CFCEF64
:0D08FF00A4FFE5F028FEE43DFDE43CFC22F2
:00000001FF
